{
  "_format": "hh-sol-artifact-1",
  "contractName": "DAPDVS",
  "sourceName": "contracts/dapdvs-full-contract-offchain.sol",
  "abi": [
    {
      "inputs": [],
      "stateMutability": "nonpayable",
      "type": "constructor"
    },
    {
      "inputs": [
        {
          "internalType": "address",
          "name": "owner",
          "type": "address"
        }
      ],
      "name": "OwnableInvalidOwner",
      "type": "error"
    },
    {
      "inputs": [
        {
          "internalType": "address",
          "name": "account",
          "type": "address"
        }
      ],
      "name": "OwnableUnauthorizedAccount",
      "type": "error"
    },
    {
      "inputs": [],
      "name": "ReentrancyGuardReentrantCall",
      "type": "error"
    },
    {
      "anonymous": false,
      "inputs": [
        {
          "indexed": true,
          "internalType": "uint256",
          "name": "contractId",
          "type": "uint256"
        },
        {
          "indexed": false,
          "internalType": "uint256",
          "name": "renterRefund",
          "type": "uint256"
        },
        {
          "indexed": false,
          "internalType": "uint256",
          "name": "ownerPayment",
          "type": "uint256"
        }
      ],
      "name": "ContractCompleted",
      "type": "event"
    },
    {
      "anonymous": false,
      "inputs": [
        {
          "indexed": true,
          "internalType": "uint256",
          "name": "contractId",
          "type": "uint256"
        },
        {
          "indexed": false,
          "internalType": "address",
          "name": "pgOwner",
          "type": "address"
        },
        {
          "indexed": false,
          "internalType": "address",
          "name": "renter",
          "type": "address"
        },
        {
          "indexed": false,
          "internalType": "bytes32",
          "name": "contentHash",
          "type": "bytes32"
        }
      ],
      "name": "ContractCreated",
      "type": "event"
    },
    {
      "anonymous": false,
      "inputs": [
        {
          "indexed": true,
          "internalType": "uint256",
          "name": "contractId",
          "type": "uint256"
        }
      ],
      "name": "ContractSigned",
      "type": "event"
    },
    {
      "anonymous": false,
      "inputs": [
        {
          "indexed": true,
          "internalType": "address",
          "name": "previousOwner",
          "type": "address"
        },
        {
          "indexed": true,
          "internalType": "address",
          "name": "newOwner",
          "type": "address"
        }
      ],
      "name": "OwnershipTransferred",
      "type": "event"
    },
    {
      "anonymous": false,
      "inputs": [
        {
          "indexed": false,
          "internalType": "address",
          "name": "validator",
          "type": "address"
        }
      ],
      "name": "ValidatorRegistered",
      "type": "event"
    },
    {
      "anonymous": false,
      "inputs": [
        {
          "indexed": true,
          "internalType": "uint256",
          "name": "contractId",
          "type": "uint256"
        },
        {
          "indexed": false,
          "internalType": "address",
          "name": "validator",
          "type": "address"
        }
      ],
      "name": "ValidatorRequested",
      "type": "event"
    },
    {
      "anonymous": false,
      "inputs": [
        {
          "indexed": false,
          "internalType": "address",
          "name": "validator",
          "type": "address"
        }
      ],
      "name": "ValidatorUnregistered",
      "type": "event"
    },
    {
      "inputs": [
        {
          "internalType": "uint256",
          "name": "_contractId",
          "type": "uint256"
        }
      ],
      "name": "autoCompleteContract",
      "outputs": [],
      "stateMutability": "nonpayable",
      "type": "function"
    },
    {
      "inputs": [
        {
          "internalType": "uint256",
          "name": "_contractId",
          "type": "uint256"
        },
        {
          "internalType": "uint256",
          "name": "_damageAmount",
          "type": "uint256"
        },
        {
          "internalType": "bytes32",
          "name": "_newContentHash",
          "type": "bytes32"
        }
      ],
      "name": "completeContract",
      "outputs": [],
      "stateMutability": "nonpayable",
      "type": "function"
    },
    {
      "inputs": [
        {
          "internalType": "address payable",
          "name": "_renter",
          "type": "address"
        },
        {
          "internalType": "uint256",
          "name": "_depositAmount",
          "type": "uint256"
        },
        {
          "internalType": "bytes32",
          "name": "_contentHash",
          "type": "bytes32"
        },
        {
          "internalType": "uint256",
          "name": "_duration",
          "type": "uint256"
        }
      ],
      "name": "createContract",
      "outputs": [],
      "stateMutability": "nonpayable",
      "type": "function"
    },
    {
      "inputs": [
        {
          "internalType": "uint256",
          "name": "_contractId",
          "type": "uint256"
        }
      ],
      "name": "getContractDetails",
      "outputs": [
        {
          "internalType": "address",
          "name": "pgOwner",
          "type": "address"
        },
        {
          "internalType": "address",
          "name": "renter",
          "type": "address"
        },
        {
          "internalType": "uint256",
          "name": "depositAmount",
          "type": "uint256"
        },
        {
          "internalType": "bytes32",
          "name": "contentHash",
          "type": "bytes32"
        },
        {
          "internalType": "uint256",
          "name": "startDate",
          "type": "uint256"
        },
        {
          "internalType": "uint256",
          "name": "endDate",
          "type": "uint256"
        },
        {
          "internalType": "bool",
          "name": "isActive",
          "type": "bool"
        },
        {
          "internalType": "bool",
          "name": "validatorRequested",
          "type": "bool"
        },
        {
          "internalType": "address",
          "name": "validator",
          "type": "address"
        },
        {
          "internalType": "bool",
          "name": "isCompleted",
          "type": "bool"
        }
      ],
      "stateMutability": "view",
      "type": "function"
    },
    {
      "inputs": [],
      "name": "nextContractId",
      "outputs": [
        {
          "internalType": "uint256",
          "name": "",
          "type": "uint256"
        }
      ],
      "stateMutability": "view",
      "type": "function"
    },
    {
      "inputs": [],
      "name": "owner",
      "outputs": [
        {
          "internalType": "address",
          "name": "",
          "type": "address"
        }
      ],
      "stateMutability": "view",
      "type": "function"
    },
    {
      "inputs": [
        {
          "internalType": "address",
          "name": "_validator",
          "type": "address"
        }
      ],
      "name": "registerValidator",
      "outputs": [],
      "stateMutability": "nonpayable",
      "type": "function"
    },
    {
      "inputs": [
        {
          "internalType": "address",
          "name": "",
          "type": "address"
        }
      ],
      "name": "registeredValidators",
      "outputs": [
        {
          "internalType": "bool",
          "name": "",
          "type": "bool"
        }
      ],
      "stateMutability": "view",
      "type": "function"
    },
    {
      "inputs": [],
      "name": "renounceOwnership",
      "outputs": [],
      "stateMutability": "nonpayable",
      "type": "function"
    },
    {
      "inputs": [
        {
          "internalType": "uint256",
          "name": "",
          "type": "uint256"
        }
      ],
      "name": "rentalContracts",
      "outputs": [
        {
          "internalType": "address payable",
          "name": "pgOwner",
          "type": "address"
        },
        {
          "internalType": "address payable",
          "name": "renter",
          "type": "address"
        },
        {
          "internalType": "uint256",
          "name": "depositAmount",
          "type": "uint256"
        },
        {
          "internalType": "bytes32",
          "name": "contentHash",
          "type": "bytes32"
        },
        {
          "internalType": "uint256",
          "name": "startDate",
          "type": "uint256"
        },
        {
          "internalType": "uint256",
          "name": "endDate",
          "type": "uint256"
        },
        {
          "internalType": "bool",
          "name": "isActive",
          "type": "bool"
        },
        {
          "internalType": "bool",
          "name": "validatorRequested",
          "type": "bool"
        },
        {
          "internalType": "address",
          "name": "validator",
          "type": "address"
        },
        {
          "internalType": "bool",
          "name": "isCompleted",
          "type": "bool"
        }
      ],
      "stateMutability": "view",
      "type": "function"
    },
    {
      "inputs": [
        {
          "internalType": "uint256",
          "name": "_contractId",
          "type": "uint256"
        },
        {
          "internalType": "address",
          "name": "_validator",
          "type": "address"
        }
      ],
      "name": "requestValidator",
      "outputs": [],
      "stateMutability": "nonpayable",
      "type": "function"
    },
    {
      "inputs": [
        {
          "internalType": "uint256",
          "name": "_contractId",
          "type": "uint256"
        }
      ],
      "name": "signContract",
      "outputs": [],
      "stateMutability": "payable",
      "type": "function"
    },
    {
      "inputs": [
        {
          "internalType": "address",
          "name": "newOwner",
          "type": "address"
        }
      ],
      "name": "transferOwnership",
      "outputs": [],
      "stateMutability": "nonpayable",
      "type": "function"
    },
    {
      "inputs": [
        {
          "internalType": "address",
          "name": "_validator",
          "type": "address"
        }
      ],
      "name": "unregisterValidator",
      "outputs": [],
      "stateMutability": "nonpayable",
      "type": "function"
    },
    {
      "inputs": [
        {
          "internalType": "uint256",
          "name": "_contractId",
          "type": "uint256"
        },
        {
          "internalType": "bytes32",
          "name": "_newContentHash",
          "type": "bytes32"
        }
      ],
      "name": "updateContractHash",
      "outputs": [],
      "stateMutability": "nonpayable",
      "type": "function"
    }
  ],
  "bytecode": "0x608060405234801561001057600080fd5b50336001600081905550600073ffffffffffffffffffffffffffffffffffffffff168173ffffffffffffffffffffffffffffffffffffffff160361008c5760006040517f1e4fbdf700000000000000000000000000000000000000000000000000000000815260040161008391906101b0565b60405180910390fd5b61009b816100a960201b60201c565b5060016003819055506101cb565b6000600160009054906101000a900473ffffffffffffffffffffffffffffffffffffffff16905081600160006101000a81548173ffffffffffffffffffffffffffffffffffffffff021916908373ffffffffffffffffffffffffffffffffffffffff1602179055508173ffffffffffffffffffffffffffffffffffffffff168173ffffffffffffffffffffffffffffffffffffffff167f8be0079c531659141344cd1fd0a4f28419497f9722a3daafe3b4186f6b6457e060405160405180910390a35050565b600073ffffffffffffffffffffffffffffffffffffffff82169050919050565b600061019a8261016f565b9050919050565b6101aa8161018f565b82525050565b60006020820190506101c560008301846101a1565b92915050565b612496806101da6000396000f3fe6080604052600436106100e85760003560e01c8063715018a61161008a5780639fca5169116100595780639fca5169146102e3578063c81742601461030c578063d92b4f8514610335578063f2fde38b1461035e576100e8565b8063715018a61461025a5780638da5cb5b146102715780639537e8d11461029c5780639b4bc530146102b8576100e8565b80634d6d6a9c116100c65780634d6d6a9c1461017c57806353da0206146101c25780635711a874146102085780635c18622c14610231576100e8565b8063051dd7a7146100ed5780630908aa971461012a5780633518c95414610153575b600080fd5b3480156100f957600080fd5b50610114600480360381019061010f9190611723565b610387565b604051610121919061176b565b60405180910390f35b34801561013657600080fd5b50610151600480360381019061014c9190611830565b6103a7565b005b34801561015f57600080fd5b5061017a60048036038101906101759190611897565b610503565b005b34801561018857600080fd5b506101a3600480360381019061019e91906118ea565b610814565b6040516101b99a99989796959493929190611944565b60405180910390f35b3480156101ce57600080fd5b506101e960048036038101906101e491906118ea565b610915565b6040516101ff9a999897969594939291906119ef565b60405180910390f35b34801561021457600080fd5b5061022f600480360381019061022a91906118ea565b6109f0565b005b34801561023d57600080fd5b5061025860048036038101906102539190611a8b565b610c3e565b005b34801561026657600080fd5b5061026f610da0565b005b34801561027d57600080fd5b50610286610db4565b6040516102939190611acb565b60405180910390f35b6102b660048036038101906102b191906118ea565b610dde565b005b3480156102c457600080fd5b506102cd610f86565b6040516102da9190611ae6565b60405180910390f35b3480156102ef57600080fd5b5061030a60048036038101906103059190611723565b610f8c565b005b34801561031857600080fd5b50610333600480360381019061032e9190611723565b6110b3565b005b34801561034157600080fd5b5061035c60048036038101906103579190611b01565b6111d9565b005b34801561036a57600080fd5b5061038560048036038101906103809190611723565b611495565b005b60046020528060005260406000206000915054906101000a900460ff1681565b60006002600060035481526020019081526020016000209050338160000160006101000a81548173ffffffffffffffffffffffffffffffffffffffff021916908373ffffffffffffffffffffffffffffffffffffffff160217905550848160010160006101000a81548173ffffffffffffffffffffffffffffffffffffffff021916908373ffffffffffffffffffffffffffffffffffffffff16021790555083816002018190555082816003018190555060008160060160006101000a81548160ff02191690831515021790555060008160060160016101000a81548160ff021916908315150217905550814261049e9190611b70565b81600501819055506003547f1a9b50e7e9e4c036795eff5c4664ac21d153566b7e1b0894553d2cb6209d93983387866040516104dc93929190611c03565b60405180910390a2600360008154809291906104f790611c3a565b91905055505050505050565b61050b61151b565b60006002600085815260200190815260200160002090508060060160029054906101000a900473ffffffffffffffffffffffffffffffffffffffff1673ffffffffffffffffffffffffffffffffffffffff163373ffffffffffffffffffffffffffffffffffffffff16146105b4576040517f08c379a00000000000000000000000000000000000000000000000000000000081526004016105ab90611d05565b60405180910390fd5b8060060160009054906101000a900460ff16610605576040517f08c379a00000000000000000000000000000000000000000000000000000000081526004016105fc90611d71565b60405180910390fd5b8060060160169054906101000a900460ff1615610657576040517f08c379a000000000000000000000000000000000000000000000000000000000815260040161064e90611ddd565b60405180910390fd5b806002015483111561069e576040517f08c379a000000000000000000000000000000000000000000000000000000000815260040161069590611e49565b60405180910390fd5b60008382600201546106b09190611e69565b90508160010160009054906101000a900473ffffffffffffffffffffffffffffffffffffffff1673ffffffffffffffffffffffffffffffffffffffff166108fc829081150290604051600060405180830381858888f1935050505015801561071c573d6000803e3d6000fd5b508160000160009054906101000a900473ffffffffffffffffffffffffffffffffffffffff1673ffffffffffffffffffffffffffffffffffffffff166108fc859081150290604051600060405180830381858888f19350505050158015610787573d6000803e3d6000fd5b5060008260060160006101000a81548160ff02191690831515021790555060018260060160166101000a81548160ff021916908315150217905550828260030181905550847f1f33f6225ad282a950f6df5e4f32a226c1359059d6d0b8354cc802943316dfdf82866040516107fd929190611e9d565b60405180910390a2505061080f611561565b505050565b6000806000806000806000806000806000600260008d815260200190815260200160002090508060000160009054906101000a900473ffffffffffffffffffffffffffffffffffffffff168160010160009054906101000a900473ffffffffffffffffffffffffffffffffffffffff1682600201548360030154846004015485600501548660060160009054906101000a900460ff168760060160019054906101000a900460ff168860060160029054906101000a900473ffffffffffffffffffffffffffffffffffffffff168960060160169054906101000a900460ff169a509a509a509a509a509a509a509a509a509a50509193959799509193959799565b60026020528060005260406000206000915090508060000160009054906101000a900473ffffffffffffffffffffffffffffffffffffffff16908060010160009054906101000a900473ffffffffffffffffffffffffffffffffffffffff16908060020154908060030154908060040154908060050154908060060160009054906101000a900460ff16908060060160019054906101000a900460ff16908060060160029054906101000a900473ffffffffffffffffffffffffffffffffffffffff16908060060160169054906101000a900460ff1690508a565b6109f861151b565b60006002600083815260200190815260200160002090508060060160009054906101000a900460ff16610a60576040517f08c379a0000000000000000000000000000000000000000000000000000000008152600401610a5790611d71565b60405180910390fd5b8060060160169054906101000a900460ff1615610ab2576040517f08c379a0000000000000000000000000000000000000000000000000000000008152600401610aa990611ddd565b60405180910390fd5b8060060160019054906101000a900460ff1615610b04576040517f08c379a0000000000000000000000000000000000000000000000000000000008152600401610afb90611f12565b60405180910390fd5b80600501544211610b4a576040517f08c379a0000000000000000000000000000000000000000000000000000000008152600401610b4190611f7e565b60405180910390fd5b8060010160009054906101000a900473ffffffffffffffffffffffffffffffffffffffff1673ffffffffffffffffffffffffffffffffffffffff166108fc82600201549081150290604051600060405180830381858888f19350505050158015610bb8573d6000803e3d6000fd5b5060008160060160006101000a81548160ff02191690831515021790555060018160060160166101000a81548160ff021916908315150217905550817f1f33f6225ad282a950f6df5e4f32a226c1359059d6d0b8354cc802943316dfdf82600201546000604051610c2a929190611fd9565b60405180910390a250610c3b611561565b50565b60006002600084815260200190815260200160002090508060000160009054906101000a900473ffffffffffffffffffffffffffffffffffffffff1673ffffffffffffffffffffffffffffffffffffffff163373ffffffffffffffffffffffffffffffffffffffff161480610d0257508060010160009054906101000a900473ffffffffffffffffffffffffffffffffffffffff1673ffffffffffffffffffffffffffffffffffffffff163373ffffffffffffffffffffffffffffffffffffffff16145b610d41576040517f08c379a0000000000000000000000000000000000000000000000000000000008152600401610d389061204e565b60405180910390fd5b8060060160009054906101000a900460ff16610d92576040517f08c379a0000000000000000000000000000000000000000000000000000000008152600401610d8990611d71565b60405180910390fd5b818160030181905550505050565b610da861156b565b610db260006115f2565b565b6000600160009054906101000a900473ffffffffffffffffffffffffffffffffffffffff16905090565b610de661151b565b60006002600083815260200190815260200160002090508060010160009054906101000a900473ffffffffffffffffffffffffffffffffffffffff1673ffffffffffffffffffffffffffffffffffffffff163373ffffffffffffffffffffffffffffffffffffffff1614610e8f576040517f08c379a0000000000000000000000000000000000000000000000000000000008152600401610e86906120ba565b60405180910390fd5b8060060160009054906101000a900460ff1615610ee1576040517f08c379a0000000000000000000000000000000000000000000000000000000008152600401610ed890612126565b60405180910390fd5b80600201543414610f27576040517f08c379a0000000000000000000000000000000000000000000000000000000008152600401610f1e90612192565b60405180910390fd5b60018160060160006101000a81548160ff021916908315150217905550428160040181905550817faf3c49f5413fd292e2325b0fe214de144a222b00cb6ec21214fdc04b5d6c591360405160405180910390a250610f83611561565b50565b60035481565b610f9461156b565b600460008273ffffffffffffffffffffffffffffffffffffffff1673ffffffffffffffffffffffffffffffffffffffff16815260200190815260200160002060009054906101000a900460ff1615611021576040517f08c379a0000000000000000000000000000000000000000000000000000000008152600401611018906121fe565b60405180910390fd5b6001600460008373ffffffffffffffffffffffffffffffffffffffff1673ffffffffffffffffffffffffffffffffffffffff16815260200190815260200160002060006101000a81548160ff0219169083151502179055507fd09501348473474a20c772c79c653e1fd7e8b437e418fe235d277d2c88853251816040516110a89190611acb565b60405180910390a150565b6110bb61156b565b600460008273ffffffffffffffffffffffffffffffffffffffff1673ffffffffffffffffffffffffffffffffffffffff16815260200190815260200160002060009054906101000a900460ff16611147576040517f08c379a000000000000000000000000000000000000000000000000000000000815260040161113e9061226a565b60405180910390fd5b6000600460008373ffffffffffffffffffffffffffffffffffffffff1673ffffffffffffffffffffffffffffffffffffffff16815260200190815260200160002060006101000a81548160ff0219169083151502179055507f182459ce960ec1c3689f209ad11c4d033c4133fd0f9653ee36f58b30359f3d98816040516111ce9190611acb565b60405180910390a150565b60006002600084815260200190815260200160002090508060000160009054906101000a900473ffffffffffffffffffffffffffffffffffffffff1673ffffffffffffffffffffffffffffffffffffffff163373ffffffffffffffffffffffffffffffffffffffff1614611282576040517f08c379a0000000000000000000000000000000000000000000000000000000008152600401611279906122fc565b60405180910390fd5b8060060160009054906101000a900460ff166112d3576040517f08c379a00000000000000000000000000000000000000000000000000000000081526004016112ca90611d71565b60405180910390fd5b8060060160019054906101000a900460ff1615611325576040517f08c379a000000000000000000000000000000000000000000000000000000000815260040161131c90612368565b60405180910390fd5b600460008373ffffffffffffffffffffffffffffffffffffffff1673ffffffffffffffffffffffffffffffffffffffff16815260200190815260200160002060009054906101000a900460ff166113b1576040517f08c379a00000000000000000000000000000000000000000000000000000000081526004016113a8906123d4565b60405180910390fd5b80600501544211156113f8576040517f08c379a00000000000000000000000000000000000000000000000000000000081526004016113ef90612440565b60405180910390fd5b60018160060160016101000a81548160ff021916908315150217905550818160060160026101000a81548173ffffffffffffffffffffffffffffffffffffffff021916908373ffffffffffffffffffffffffffffffffffffffff160217905550827f3a198a06aa97acbebda2d27fdb39c971ee62861202cb097373639b8f1a3a8715836040516114889190611acb565b60405180910390a2505050565b61149d61156b565b600073ffffffffffffffffffffffffffffffffffffffff168173ffffffffffffffffffffffffffffffffffffffff160361150f5760006040517f1e4fbdf70000000000000000000000000000000000000000000000000000000081526004016115069190611acb565b60405180910390fd5b611518816115f2565b50565b600260005403611557576040517f3ee5aeb500000000000000000000000000000000000000000000000000000000815260040160405180910390fd5b6002600081905550565b6001600081905550565b6115736116b8565b73ffffffffffffffffffffffffffffffffffffffff16611591610db4565b73ffffffffffffffffffffffffffffffffffffffff16146115f0576115b46116b8565b6040517f118cdaa70000000000000000000000000000000000000000000000000000000081526004016115e79190611acb565b60405180910390fd5b565b6000600160009054906101000a900473ffffffffffffffffffffffffffffffffffffffff16905081600160006101000a81548173ffffffffffffffffffffffffffffffffffffffff021916908373ffffffffffffffffffffffffffffffffffffffff1602179055508173ffffffffffffffffffffffffffffffffffffffff168173ffffffffffffffffffffffffffffffffffffffff167f8be0079c531659141344cd1fd0a4f28419497f9722a3daafe3b4186f6b6457e060405160405180910390a35050565b600033905090565b600080fd5b600073ffffffffffffffffffffffffffffffffffffffff82169050919050565b60006116f0826116c5565b9050919050565b611700816116e5565b811461170b57600080fd5b50565b60008135905061171d816116f7565b92915050565b600060208284031215611739576117386116c0565b5b60006117478482850161170e565b91505092915050565b60008115159050919050565b61176581611750565b82525050565b6000602082019050611780600083018461175c565b92915050565b6000611791826116c5565b9050919050565b6117a181611786565b81146117ac57600080fd5b50565b6000813590506117be81611798565b92915050565b6000819050919050565b6117d7816117c4565b81146117e257600080fd5b50565b6000813590506117f4816117ce565b92915050565b6000819050919050565b61180d816117fa565b811461181857600080fd5b50565b60008135905061182a81611804565b92915050565b6000806000806080858703121561184a576118496116c0565b5b6000611858878288016117af565b9450506020611869878288016117e5565b935050604061187a8782880161181b565b925050606061188b878288016117e5565b91505092959194509250565b6000806000606084860312156118b0576118af6116c0565b5b60006118be868287016117e5565b93505060206118cf868287016117e5565b92505060406118e08682870161181b565b9150509250925092565b600060208284031215611900576118ff6116c0565b5b600061190e848285016117e5565b91505092915050565b611920816116e5565b82525050565b61192f816117c4565b82525050565b61193e816117fa565b82525050565b60006101408201905061195a600083018d611917565b611967602083018c611917565b611974604083018b611926565b611981606083018a611935565b61198e6080830189611926565b61199b60a0830188611926565b6119a860c083018761175c565b6119b560e083018661175c565b6119c3610100830185611917565b6119d161012083018461175c565b9b9a5050505050505050505050565b6119e981611786565b82525050565b600061014082019050611a05600083018d6119e0565b611a12602083018c6119e0565b611a1f604083018b611926565b611a2c606083018a611935565b611a396080830189611926565b611a4660a0830188611926565b611a5360c083018761175c565b611a6060e083018661175c565b611a6e610100830185611917565b611a7c61012083018461175c565b9b9a5050505050505050505050565b60008060408385031215611aa257611aa16116c0565b5b6000611ab0858286016117e5565b9250506020611ac18582860161181b565b9150509250929050565b6000602082019050611ae06000830184611917565b92915050565b6000602082019050611afb6000830184611926565b92915050565b60008060408385031215611b1857611b176116c0565b5b6000611b26858286016117e5565b9250506020611b378582860161170e565b9150509250929050565b7f4e487b7100000000000000000000000000000000000000000000000000000000600052601160045260246000fd5b6000611b7b826117c4565b9150611b86836117c4565b9250828201905080821115611b9e57611b9d611b41565b5b92915050565b6000819050919050565b6000611bc9611bc4611bbf846116c5565b611ba4565b6116c5565b9050919050565b6000611bdb82611bae565b9050919050565b6000611bed82611bd0565b9050919050565b611bfd81611be2565b82525050565b6000606082019050611c186000830186611917565b611c256020830185611bf4565b611c326040830184611935565b949350505050565b6000611c45826117c4565b91507fffffffffffffffffffffffffffffffffffffffffffffffffffffffffffffffff8203611c7757611c76611b41565b5b600182019050919050565b600082825260208201905092915050565b7f4f6e6c79207468652061737369676e65642076616c696461746f722063616e2060008201527f636f6d706c6574652074686520636f6e74726163740000000000000000000000602082015250565b6000611cef603583611c82565b9150611cfa82611c93565b604082019050919050565b60006020820190508181036000830152611d1e81611ce2565b9050919050565b7f436f6e7472616374206973206e6f742061637469766500000000000000000000600082015250565b6000611d5b601683611c82565b9150611d6682611d25565b602082019050919050565b60006020820190508181036000830152611d8a81611d4e565b9050919050565b7f436f6e747261637420616c726561647920636f6d706c65746564000000000000600082015250565b6000611dc7601a83611c82565b9150611dd282611d91565b602082019050919050565b60006020820190508181036000830152611df681611dba565b9050919050565b7f44616d61676520616d6f756e742065786365656473206465706f736974000000600082015250565b6000611e33601d83611c82565b9150611e3e82611dfd565b602082019050919050565b60006020820190508181036000830152611e6281611e26565b9050919050565b6000611e74826117c4565b9150611e7f836117c4565b9250828203905081811115611e9757611e96611b41565b5b92915050565b6000604082019050611eb26000830185611926565b611ebf6020830184611926565b9392505050565b7f56616c696461746f7220686173206265656e2072657175657374656400000000600082015250565b6000611efc601c83611c82565b9150611f0782611ec6565b602082019050919050565b60006020820190508181036000830152611f2b81611eef565b9050919050565b7f436f6e747261637420686173206e6f7420656e64656420796574000000000000600082015250565b6000611f68601a83611c82565b9150611f7382611f32565b602082019050919050565b60006020820190508181036000830152611f9781611f5b565b9050919050565b6000819050919050565b6000611fc3611fbe611fb984611f9e565b611ba4565b6117c4565b9050919050565b611fd381611fa8565b82525050565b6000604082019050611fee6000830185611926565b611ffb6020830184611fca565b9392505050565b7f556e617574686f72697a65640000000000000000000000000000000000000000600082015250565b6000612038600c83611c82565b915061204382612002565b602082019050919050565b600060208201905081810360008301526120678161202b565b9050919050565b7f4f6e6c79207468652072656e7465722063616e207369676e0000000000000000600082015250565b60006120a4601883611c82565b91506120af8261206e565b602082019050919050565b600060208201905081810360008301526120d381612097565b9050919050565b7f436f6e747261637420616c726561647920616374697665000000000000000000600082015250565b6000612110601783611c82565b915061211b826120da565b602082019050919050565b6000602082019050818103600083015261213f81612103565b9050919050565b7f496e636f7272656374206465706f73697420616d6f756e740000000000000000600082015250565b600061217c601883611c82565b915061218782612146565b602082019050919050565b600060208201905081810360008301526121ab8161216f565b9050919050565b7f56616c696461746f7220616c7265616479207265676973746572656400000000600082015250565b60006121e8601c83611c82565b91506121f3826121b2565b602082019050919050565b60006020820190508181036000830152612217816121db565b9050919050565b7f56616c696461746f72206e6f7420726567697374657265640000000000000000600082015250565b6000612254601883611c82565b915061225f8261221e565b602082019050919050565b6000602082019050818103600083015261228381612247565b9050919050565b7f4f6e6c7920746865205047206f776e65722063616e207265717565737420612060008201527f76616c696461746f720000000000000000000000000000000000000000000000602082015250565b60006122e6602983611c82565b91506122f18261228a565b604082019050919050565b60006020820190508181036000830152612315816122d9565b9050919050565b7f56616c696461746f7220616c7265616479207265717565737465640000000000600082015250565b6000612352601b83611c82565b915061235d8261231c565b602082019050919050565b6000602082019050818103600083015261238181612345565b9050919050565b7f56616c696461746f72206973206e6f7420726567697374657265640000000000600082015250565b60006123be601b83611c82565b91506123c982612388565b602082019050919050565b600060208201905081810360008301526123ed816123b1565b9050919050565b7f436f6e74726163742068617320656e6465640000000000000000000000000000600082015250565b600061242a601283611c82565b9150612435826123f4565b602082019050919050565b600060208201905081810360008301526124598161241d565b905091905056fea2646970667358221220587a8ac41a1f1443b8ae574dc58332c2a4525a584c3f87dd20b3a1921fffcdec64736f6c634300081b0033",
  "linkReferences": {},
  "deployedLinkReferences": {}
}